{
  "_format": "hh-sol-artifact-1",
  "contractName": "ArbiterVoting",
  "sourceName": "contracts/Voting.sol",
  "abi": [
    {
      "inputs": [
        {
          "internalType": "bytes32[]",
          "name": "proposalNames",
          "type": "bytes32[]"
        }
      ],
      "stateMutability": "nonpayable",
      "type": "constructor"
    },
    {
      "anonymous": false,
      "inputs": [
        {
          "indexed": true,
          "internalType": "address",
          "name": "previousOwner",
          "type": "address"
        },
        {
          "indexed": true,
          "internalType": "address",
          "name": "newOwner",
          "type": "address"
        }
      ],
      "name": "OwnershipTransferred",
      "type": "event"
    },
    {
      "inputs": [],
      "name": "admin",
      "outputs": [
        {
          "internalType": "address",
          "name": "",
          "type": "address"
        }
      ],
      "stateMutability": "view",
      "type": "function"
    },
    {
      "inputs": [
        {
          "internalType": "bytes32[]",
          "name": "proposalNames",
          "type": "bytes32[]"
        }
      ],
      "name": "createBallot",
      "outputs": [],
      "stateMutability": "nonpayable",
      "type": "function"
    },
    {
      "inputs": [
        {
          "internalType": "address",
          "name": "voter",
          "type": "address"
        }
      ],
      "name": "giveRightToVote",
      "outputs": [],
      "stateMutability": "nonpayable",
      "type": "function"
    },
    {
      "inputs": [],
      "name": "owner",
      "outputs": [
        {
          "internalType": "address",
          "name": "",
          "type": "address"
        }
      ],
      "stateMutability": "view",
      "type": "function"
    },
    {
      "inputs": [
        {
          "internalType": "uint256",
          "name": "",
          "type": "uint256"
        }
      ],
      "name": "proposals",
      "outputs": [
        {
          "internalType": "bytes32",
          "name": "name",
          "type": "bytes32"
        },
        {
          "internalType": "uint256",
          "name": "voteCount",
          "type": "uint256"
        }
      ],
      "stateMutability": "view",
      "type": "function"
    },
    {
      "inputs": [],
      "name": "renounceOwnership",
      "outputs": [],
      "stateMutability": "nonpayable",
      "type": "function"
    },
    {
      "inputs": [
        {
          "internalType": "address",
          "name": "newOwner",
          "type": "address"
        }
      ],
      "name": "transferOwnership",
      "outputs": [],
      "stateMutability": "nonpayable",
      "type": "function"
    },
    {
      "inputs": [
        {
          "internalType": "uint256",
          "name": "proposal",
          "type": "uint256"
        }
      ],
      "name": "vote",
      "outputs": [],
      "stateMutability": "nonpayable",
      "type": "function"
    },
    {
      "inputs": [
        {
          "internalType": "address",
          "name": "",
          "type": "address"
        }
      ],
      "name": "voters",
      "outputs": [
        {
          "internalType": "uint256",
          "name": "weight",
          "type": "uint256"
        },
        {
          "internalType": "bool",
          "name": "voted",
          "type": "bool"
        },
        {
          "internalType": "uint256",
          "name": "vote",
          "type": "uint256"
        },
        {
          "internalType": "uint256",
          "name": "disputeId",
          "type": "uint256"
        }
      ],
      "stateMutability": "view",
      "type": "function"
    },
    {
      "inputs": [],
      "name": "winnerName",
      "outputs": [
        {
          "internalType": "bytes32",
          "name": "winnerName_",
          "type": "bytes32"
        }
      ],
      "stateMutability": "view",
      "type": "function"
    },
    {
      "inputs": [],
      "name": "winningProposal",
      "outputs": [
        {
          "internalType": "uint256",
          "name": "winningProposal_",
          "type": "uint256"
        }
      ],
      "stateMutability": "view",
      "type": "function"
    }
  ],
  "bytecode": "0x60806040523480156200001157600080fd5b50604051620017c2380380620017c283398181016040528101906200003791906200034a565b620000576200004b620001c560201b60201c565b620001cd60201b60201c565b33600160006101000a81548173ffffffffffffffffffffffffffffffffffffffff021916908373ffffffffffffffffffffffffffffffffffffffff160217905550600160026000600160009054906101000a900473ffffffffffffffffffffffffffffffffffffffff1673ffffffffffffffffffffffffffffffffffffffff1673ffffffffffffffffffffffffffffffffffffffff1681526020019081526020016000206000018190555060005b8151811015620001bd576003604051806040016040528084848151811062000156577f4e487b7100000000000000000000000000000000000000000000000000000000600052603260045260246000fd5b6020026020010151815260200160008152509080600181540180825580915050600190039060005260206000209060020201600090919091909150600082015181600001556020820151816001015550508080620001b49062000431565b91505062000105565b505062000508565b600033905090565b60008060009054906101000a900473ffffffffffffffffffffffffffffffffffffffff169050816000806101000a81548173ffffffffffffffffffffffffffffffffffffffff021916908373ffffffffffffffffffffffffffffffffffffffff1602179055508173ffffffffffffffffffffffffffffffffffffffff168173ffffffffffffffffffffffffffffffffffffffff167f8be0079c531659141344cd1fd0a4f28419497f9722a3daafe3b4186f6b6457e060405160405180910390a35050565b6000620002a8620002a284620003b8565b6200038f565b90508083825260208201905082856020860282011115620002c857600080fd5b60005b85811015620002fc5781620002e1888262000333565b845260208401935060208301925050600181019050620002cb565b5050509392505050565b600082601f8301126200031857600080fd5b81516200032a84826020860162000291565b91505092915050565b6000815190506200034481620004ee565b92915050565b6000602082840312156200035d57600080fd5b600082015167ffffffffffffffff8111156200037857600080fd5b620003868482850162000306565b91505092915050565b60006200039b620003ae565b9050620003a98282620003fb565b919050565b6000604051905090565b600067ffffffffffffffff821115620003d657620003d5620004ae565b5b602082029050602081019050919050565b6000819050919050565b6000819050919050565b6200040682620004dd565b810181811067ffffffffffffffff82111715620004285762000427620004ae565b5b80604052505050565b60006200043e82620003f1565b91507fffffffffffffffffffffffffffffffffffffffffffffffffffffffffffffffff8214156200047457620004736200047f565b5b600182019050919050565b7f4e487b7100000000000000000000000000000000000000000000000000000000600052601160045260246000fd5b7f4e487b7100000000000000000000000000000000000000000000000000000000600052604160045260246000fd5b6000601f19601f8301169050919050565b620004f981620003e7565b81146200050557600080fd5b50565b6112aa80620005186000396000f3fe608060405234801561001057600080fd5b50600436106100a95760003560e01c80639e7b8d61116100715780639e7b8d6114610141578063a3ec138d1461015d578063e2ba53f014610190578063e35c9384146101ae578063f2fde38b146101ca578063f851a440146101e6576100a9565b80630121b93f146100ae578063013cf08b146100ca578063609ff1bd146100fb578063715018a6146101195780638da5cb5b14610123575b600080fd5b6100c860048036038101906100c39190610c44565b610204565b005b6100e460048036038101906100df9190610c44565b610371565b6040516100f2929190610db1565b60405180910390f35b6101036103a5565b6040516101109190610e9a565b60405180910390f35b610121610479565b005b61012b610501565b6040516101389190610d7b565b60405180910390f35b61015b60048036038101906101569190610bda565b61052a565b005b61017760048036038101906101729190610bda565b610760565b6040516101879493929190610eb5565b60405180910390f35b61019861079d565b6040516101a59190610d96565b60405180910390f35b6101c860048036038101906101c39190610c03565b6107f7565b005b6101e460048036038101906101df9190610bda565b61091b565b005b6101ee610a13565b6040516101fb9190610d7b565b60405180910390f35b6000600260003373ffffffffffffffffffffffffffffffffffffffff1673ffffffffffffffffffffffffffffffffffffffff168152602001908152602001600020905060008160000154141561028f576040517f08c379a000000000000000000000000000000000000000000000000000000000815260040161028690610dda565b60405180910390fd5b8060010160009054906101000a900460ff16156102e1576040517f08c379a00000000000000000000000000000000000000000000000000000000081526004016102d890610e1a565b60405180910390fd5b60018160010160006101000a81548160ff021916908315150217905550818160020181905550806000015460038381548110610346577f4e487b7100000000000000000000000000000000000000000000000000000000600052603260045260246000fd5b906000526020600020906002020160010160008282546103669190610f5c565b925050819055505050565b6003818154811061038157600080fd5b90600052602060002090600202016000915090508060000154908060010154905082565b6000806000905060005b6003805490508110156104745781600382815481106103f7577f4e487b7100000000000000000000000000000000000000000000000000000000600052603260045260246000fd5b90600052602060002090600202016001015411156104615760038181548110610449577f4e487b7100000000000000000000000000000000000000000000000000000000600052603260045260246000fd5b90600052602060002090600202016001015491508092505b808061046c90611035565b9150506103af565b505090565b610481610a39565b73ffffffffffffffffffffffffffffffffffffffff1661049f610501565b73ffffffffffffffffffffffffffffffffffffffff16146104f5576040517f08c379a00000000000000000000000000000000000000000000000000000000081526004016104ec90610e3a565b60405180910390fd5b6104ff6000610a41565b565b60008060009054906101000a900473ffffffffffffffffffffffffffffffffffffffff16905090565b610532610a39565b73ffffffffffffffffffffffffffffffffffffffff16610550610501565b73ffffffffffffffffffffffffffffffffffffffff16146105a6576040517f08c379a000000000000000000000000000000000000000000000000000000000815260040161059d90610e3a565b60405180910390fd5b600160009054906101000a900473ffffffffffffffffffffffffffffffffffffffff1673ffffffffffffffffffffffffffffffffffffffff163373ffffffffffffffffffffffffffffffffffffffff1614610636576040517f08c379a000000000000000000000000000000000000000000000000000000000815260040161062d90610e5a565b60405180910390fd5b600260008273ffffffffffffffffffffffffffffffffffffffff1673ffffffffffffffffffffffffffffffffffffffff16815260200190815260200160002060010160009054906101000a900460ff16156106c6576040517f08c379a00000000000000000000000000000000000000000000000000000000081526004016106bd90610e7a565b60405180910390fd5b6000600260008373ffffffffffffffffffffffffffffffffffffffff1673ffffffffffffffffffffffffffffffffffffffff168152602001908152602001600020600001541461071557600080fd5b6001600260008373ffffffffffffffffffffffffffffffffffffffff1673ffffffffffffffffffffffffffffffffffffffff1681526020019081526020016000206000018190555050565b60026020528060005260406000206000915090508060000154908060010160009054906101000a900460ff16908060020154908060030154905084565b600060036107a96103a5565b815481106107e0577f4e487b7100000000000000000000000000000000000000000000000000000000600052603260045260246000fd5b906000526020600020906002020160000154905090565b600160026000600160009054906101000a900473ffffffffffffffffffffffffffffffffffffffff1673ffffffffffffffffffffffffffffffffffffffff1673ffffffffffffffffffffffffffffffffffffffff1681526020019081526020016000206000018190555060005b815181101561091757600360405180604001604052808484815181106108b3577f4e487b7100000000000000000000000000000000000000000000000000000000600052603260045260246000fd5b602002602001015181526020016000815250908060018154018082558091505060019003906000526020600020906002020160009091909190915060008201518160000155602082015181600101555050808061090f90611035565b915050610864565b5050565b610923610a39565b73ffffffffffffffffffffffffffffffffffffffff16610941610501565b73ffffffffffffffffffffffffffffffffffffffff1614610997576040517f08c379a000000000000000000000000000000000000000000000000000000000815260040161098e90610e3a565b60405180910390fd5b600073ffffffffffffffffffffffffffffffffffffffff168173ffffffffffffffffffffffffffffffffffffffff161415610a07576040517f08c379a00000000000000000000000000000000000000000000000000000000081526004016109fe90610dfa565b60405180910390fd5b610a1081610a41565b50565b600160009054906101000a900473ffffffffffffffffffffffffffffffffffffffff1681565b600033905090565b60008060009054906101000a900473ffffffffffffffffffffffffffffffffffffffff169050816000806101000a81548173ffffffffffffffffffffffffffffffffffffffff021916908373ffffffffffffffffffffffffffffffffffffffff1602179055508173ffffffffffffffffffffffffffffffffffffffff168173ffffffffffffffffffffffffffffffffffffffff167f8be0079c531659141344cd1fd0a4f28419497f9722a3daafe3b4186f6b6457e060405160405180910390a35050565b6000610b18610b1384610f1f565b610efa565b90508083825260208201905082856020860282011115610b3757600080fd5b60005b85811015610b675781610b4d8882610bb0565b845260208401935060208301925050600181019050610b3a565b5050509392505050565b600081359050610b808161122f565b92915050565b600082601f830112610b9757600080fd5b8135610ba7848260208601610b05565b91505092915050565b600081359050610bbf81611246565b92915050565b600081359050610bd48161125d565b92915050565b600060208284031215610bec57600080fd5b6000610bfa84828501610b71565b91505092915050565b600060208284031215610c1557600080fd5b600082013567ffffffffffffffff811115610c2f57600080fd5b610c3b84828501610b86565b91505092915050565b600060208284031215610c5657600080fd5b6000610c6484828501610bc5565b91505092915050565b610c7681610fb2565b82525050565b610c8581610fc4565b82525050565b610c9481610fd0565b82525050565b6000610ca7601483610f4b565b9150610cb2826110ed565b602082019050919050565b6000610cca602683610f4b565b9150610cd582611116565b604082019050919050565b6000610ced600e83610f4b565b9150610cf882611165565b602082019050919050565b6000610d10602083610f4b565b9150610d1b8261118e565b602082019050919050565b6000610d33602283610f4b565b9150610d3e826111b7565b604082019050919050565b6000610d56601883610f4b565b9150610d6182611206565b602082019050919050565b610d7581610ffa565b82525050565b6000602082019050610d906000830184610c6d565b92915050565b6000602082019050610dab6000830184610c8b565b92915050565b6000604082019050610dc66000830185610c8b565b610dd36020830184610d6c565b9392505050565b60006020820190508181036000830152610df381610c9a565b9050919050565b60006020820190508181036000830152610e1381610cbd565b9050919050565b60006020820190508181036000830152610e3381610ce0565b9050919050565b60006020820190508181036000830152610e5381610d03565b9050919050565b60006020820190508181036000830152610e7381610d26565b9050919050565b60006020820190508181036000830152610e9381610d49565b9050919050565b6000602082019050610eaf6000830184610d6c565b92915050565b6000608082019050610eca6000830187610d6c565b610ed76020830186610c7c565b610ee46040830185610d6c565b610ef16060830184610d6c565b95945050505050565b6000610f04610f15565b9050610f108282611004565b919050565b6000604051905090565b600067ffffffffffffffff821115610f3a57610f396110ad565b5b602082029050602081019050919050565b600082825260208201905092915050565b6000610f6782610ffa565b9150610f7283610ffa565b9250827fffffffffffffffffffffffffffffffffffffffffffffffffffffffffffffffff03821115610fa757610fa661107e565b5b828201905092915050565b6000610fbd82610fda565b9050919050565b60008115159050919050565b6000819050919050565b600073ffffffffffffffffffffffffffffffffffffffff82169050919050565b6000819050919050565b61100d826110dc565b810181811067ffffffffffffffff8211171561102c5761102b6110ad565b5b80604052505050565b600061104082610ffa565b91507fffffffffffffffffffffffffffffffffffffffffffffffffffffffffffffffff8214156110735761107261107e565b5b600182019050919050565b7f4e487b7100000000000000000000000000000000000000000000000000000000600052601160045260246000fd5b7f4e487b7100000000000000000000000000000000000000000000000000000000600052604160045260246000fd5b6000601f19601f8301169050919050565b7f486173206e6f20726967687420746f20766f7465000000000000000000000000600082015250565b7f4f776e61626c653a206e6577206f776e657220697320746865207a65726f206160008201527f6464726573730000000000000000000000000000000000000000000000000000602082015250565b7f416c726561647920766f7465642e000000000000000000000000000000000000600082015250565b7f4f776e61626c653a2063616c6c6572206973206e6f7420746865206f776e6572600082015250565b7f4f6e6c792061646d696e2063616e206769766520726967687420746f20766f7460008201527f652e000000000000000000000000000000000000000000000000000000000000602082015250565b7f54686520766f74657220616c726561647920766f7465642e0000000000000000600082015250565b61123881610fb2565b811461124357600080fd5b50565b61124f81610fd0565b811461125a57600080fd5b50565b61126681610ffa565b811461127157600080fd5b5056fea264697066735822122049b38f265a6b673bc8609992ca8a3d5508bdb44cf25e377a758707114b71b26b64736f6c63430008040033",
  "linkReferences": {},
  "deployedLinkReferences": {}
}