{
  "_format": "hh-sol-artifact-1",
  "contractName": "Randomizer",
  "sourceName": "contracts/RandomGenerator.sol",
  "abi": [
    {
      "inputs": [
        {
          "internalType": "uint64",
          "name": "subscriptionId",
          "type": "uint64"
        }
      ],
      "stateMutability": "nonpayable",
      "type": "constructor"
    },
    {
      "inputs": [
        {
          "internalType": "address",
          "name": "have",
          "type": "address"
        },
        {
          "internalType": "address",
          "name": "want",
          "type": "address"
        }
      ],
      "name": "OnlyCoordinatorCanFulfill",
      "type": "error"
    },
    {
      "inputs": [
        {
          "internalType": "uint256",
          "name": "requestId",
          "type": "uint256"
        },
        {
          "internalType": "uint256[]",
          "name": "randomWords",
          "type": "uint256[]"
        }
      ],
      "name": "rawFulfillRandomWords",
      "outputs": [],
      "stateMutability": "nonpayable",
      "type": "function"
    },
    {
      "inputs": [],
      "name": "requestRandomWords",
      "outputs": [],
      "stateMutability": "nonpayable",
      "type": "function"
    },
    {
      "inputs": [
        {
          "internalType": "uint256",
          "name": "",
          "type": "uint256"
        }
      ],
      "name": "s_randomWords",
      "outputs": [
        {
          "internalType": "uint256",
          "name": "",
          "type": "uint256"
        }
      ],
      "stateMutability": "view",
      "type": "function"
    },
    {
      "inputs": [],
      "name": "s_requestId",
      "outputs": [
        {
          "internalType": "uint256",
          "name": "",
          "type": "uint256"
        }
      ],
      "stateMutability": "view",
      "type": "function"
    }
  ],
  "bytecode": "0x60a0604052736168499c0cffcacd319c818142124b7a15e857ab600260006101000a81548173ffffffffffffffffffffffffffffffffffffffff021916908373ffffffffffffffffffffffffffffffffffffffff1602179055507301be23585060835e02b77ef475b0cc51aa1e0709600360006101000a81548173ffffffffffffffffffffffffffffffffffffffff021916908373ffffffffffffffffffffffffffffffffffffffff1602179055507fd89b2bf150e3b9e13446986e571fb9cab24b13cea0a43ea20a6049a85cc807cc60001b600455620186a0600560006101000a81548163ffffffff021916908363ffffffff1602179055506003600560046101000a81548161ffff021916908361ffff1602179055506004600560066101000a81548163ffffffff021916908363ffffffff16021790555034801561014557600080fd5b50604051610af7380380610af78339818101604052810190610167919061030c565b600260009054906101000a900473ffffffffffffffffffffffffffffffffffffffff168073ffffffffffffffffffffffffffffffffffffffff1660808173ffffffffffffffffffffffffffffffffffffffff1660601b8152505050600260009054906101000a900473ffffffffffffffffffffffffffffffffffffffff166000806101000a81548173ffffffffffffffffffffffffffffffffffffffff021916908373ffffffffffffffffffffffffffffffffffffffff160217905550600360009054906101000a900473ffffffffffffffffffffffffffffffffffffffff16600160006101000a81548173ffffffffffffffffffffffffffffffffffffffff021916908373ffffffffffffffffffffffffffffffffffffffff16021790555033600860006101000a81548173ffffffffffffffffffffffffffffffffffffffff021916908373ffffffffffffffffffffffffffffffffffffffff16021790555080600160146101000a81548167ffffffffffffffff021916908367ffffffffffffffff16021790555050610360565b60008151905061030681610349565b92915050565b60006020828403121561031e57600080fd5b600061032c848285016102f7565b91505092915050565b600067ffffffffffffffff82169050919050565b61035281610335565b811461035d57600080fd5b50565b60805160601c6107736103846000396000818160c7015261011b01526107736000f3fe608060405234801561001057600080fd5b506004361061004c5760003560e01c80631fe543e314610051578063e0c862891461006d578063e89e106a14610077578063f6eaffc814610095575b600080fd5b61006b600480360381019061006691906104a7565b6100c5565b005b610075610185565b005b61007f6102e6565b60405161008c91906105d1565b60405180910390f35b6100af60048036038101906100aa9190610455565b6102ec565b6040516100bc91906105d1565b60405180910390f35b7f000000000000000000000000000000000000000000000000000000000000000073ffffffffffffffffffffffffffffffffffffffff163373ffffffffffffffffffffffffffffffffffffffff161461017757337f00000000000000000000000000000000000000000000000000000000000000006040517f1cf993f400000000000000000000000000000000000000000000000000000000815260040161016e929190610555565b60405180910390fd5b6101818282610310565b5050565b600860009054906101000a900473ffffffffffffffffffffffffffffffffffffffff1673ffffffffffffffffffffffffffffffffffffffff163373ffffffffffffffffffffffffffffffffffffffff16146101df57600080fd5b60008054906101000a900473ffffffffffffffffffffffffffffffffffffffff1673ffffffffffffffffffffffffffffffffffffffff16635d3b1d30600454600160149054906101000a900467ffffffffffffffff16600560049054906101000a900461ffff16600560009054906101000a900463ffffffff16600560069054906101000a900463ffffffff166040518663ffffffff1660e01b815260040161028c95949392919061057e565b602060405180830381600087803b1580156102a657600080fd5b505af11580156102ba573d6000803e3d6000fd5b505050506040513d601f19601f820116820180604052508101906102de919061047e565b600781905550565b60075481565b600681815481106102fc57600080fd5b906000526020600020016000915090505481565b806006908051906020019061032692919061032b565b505050565b828054828255906000526020600020908101928215610367579160200282015b8281111561036657825182559160200191906001019061034b565b5b5090506103749190610378565b5090565b5b80821115610391576000816000905550600101610379565b5090565b60006103a86103a384610611565b6105ec565b905080838252602082019050828560208602820111156103c757600080fd5b60005b858110156103f757816103dd888261042b565b8452602084019350602083019250506001810190506103ca565b5050509392505050565b600082601f83011261041257600080fd5b8135610422848260208601610395565b91505092915050565b60008135905061043a81610726565b92915050565b60008151905061044f81610726565b92915050565b60006020828403121561046757600080fd5b60006104758482850161042b565b91505092915050565b60006020828403121561049057600080fd5b600061049e84828501610440565b91505092915050565b600080604083850312156104ba57600080fd5b60006104c88582860161042b565b925050602083013567ffffffffffffffff8111156104e557600080fd5b6104f185828601610401565b9150509250929050565b6105048161063d565b82525050565b6105138161064f565b82525050565b61052281610659565b82525050565b61053181610687565b82525050565b61054081610691565b82525050565b61054f816106a1565b82525050565b600060408201905061056a60008301856104fb565b61057760208301846104fb565b9392505050565b600060a082019050610593600083018861050a565b6105a06020830187610546565b6105ad6040830186610519565b6105ba6060830185610537565b6105c76080830184610537565b9695505050505050565b60006020820190506105e66000830184610528565b92915050565b60006105f6610607565b905061060282826106b5565b919050565b6000604051905090565b600067ffffffffffffffff82111561062c5761062b6106e6565b5b602082029050602081019050919050565b600061064882610667565b9050919050565b6000819050919050565b600061ffff82169050919050565b600073ffffffffffffffffffffffffffffffffffffffff82169050919050565b6000819050919050565b600063ffffffff82169050919050565b600067ffffffffffffffff82169050919050565b6106be82610715565b810181811067ffffffffffffffff821117156106dd576106dc6106e6565b5b80604052505050565b7f4e487b7100000000000000000000000000000000000000000000000000000000600052604160045260246000fd5b6000601f19601f8301169050919050565b61072f81610687565b811461073a57600080fd5b5056fea264697066735822122058e56fbebeb3dca75c2fdf1a8c4e1215a0c679744a63d545392cde68a7c7db0164736f6c63430008040033",
  "linkReferences": {},
  "deployedLinkReferences": {}
}