{
  "_format": "hh-sol-artifact-1",
  "contractName": "Disputepool",
  "sourceName": "contracts/DisputePool.sol",
  "abi": [
    {
      "anonymous": false,
      "inputs": [
        {
          "indexed": true,
          "internalType": "address",
          "name": "previousOwner",
          "type": "address"
        },
        {
          "indexed": true,
          "internalType": "address",
          "name": "newOwner",
          "type": "address"
        }
      ],
      "name": "OwnershipTransferred",
      "type": "event"
    },
    {
      "inputs": [
        {
          "internalType": "address",
          "name": "_contractOneAddress",
          "type": "address"
        },
        {
          "internalType": "address",
          "name": "_user",
          "type": "address"
        },
        {
          "internalType": "uint256",
          "name": "id",
          "type": "uint256"
        }
      ],
      "name": "addUserToDisputePool",
      "outputs": [],
      "stateMutability": "payable",
      "type": "function"
    },
    {
      "inputs": [
        {
          "internalType": "uint256",
          "name": "itemId",
          "type": "uint256"
        }
      ],
      "name": "closeDisputeApplication",
      "outputs": [],
      "stateMutability": "nonpayable",
      "type": "function"
    },
    {
      "inputs": [
        {
          "internalType": "string",
          "name": "uri",
          "type": "string"
        }
      ],
      "name": "createDispute",
      "outputs": [],
      "stateMutability": "payable",
      "type": "function"
    },
    {
      "inputs": [
        {
          "internalType": "uint256",
          "name": "itemId",
          "type": "uint256"
        }
      ],
      "name": "getAddressesForDispute",
      "outputs": [
        {
          "internalType": "address[]",
          "name": "",
          "type": "address[]"
        }
      ],
      "stateMutability": "view",
      "type": "function"
    },
    {
      "inputs": [],
      "name": "getAllDisputes",
      "outputs": [
        {
          "components": [
            {
              "internalType": "uint256",
              "name": "disputeId",
              "type": "uint256"
            },
            {
              "internalType": "bool",
              "name": "resolved",
              "type": "bool"
            },
            {
              "internalType": "bool",
              "name": "isOpenForApplication",
              "type": "bool"
            },
            {
              "internalType": "bool",
              "name": "HasSelectedArbiters",
              "type": "bool"
            },
            {
              "internalType": "string",
              "name": "Uri",
              "type": "string"
            }
          ],
          "internalType": "struct Disputepool.Dispute[]",
          "name": "",
          "type": "tuple[]"
        }
      ],
      "stateMutability": "view",
      "type": "function"
    },
    {
      "inputs": [],
      "name": "getAllUnResolvedDisputes",
      "outputs": [
        {
          "components": [
            {
              "internalType": "uint256",
              "name": "disputeId",
              "type": "uint256"
            },
            {
              "internalType": "bool",
              "name": "resolved",
              "type": "bool"
            },
            {
              "internalType": "bool",
              "name": "isOpenForApplication",
              "type": "bool"
            },
            {
              "internalType": "bool",
              "name": "HasSelectedArbiters",
              "type": "bool"
            },
            {
              "internalType": "string",
              "name": "Uri",
              "type": "string"
            }
          ],
          "internalType": "struct Disputepool.Dispute[]",
          "name": "",
          "type": "tuple[]"
        }
      ],
      "stateMutability": "view",
      "type": "function"
    },
    {
      "inputs": [
        {
          "internalType": "uint256",
          "name": "one",
          "type": "uint256"
        },
        {
          "internalType": "uint256",
          "name": "two",
          "type": "uint256"
        },
        {
          "internalType": "uint256",
          "name": "three",
          "type": "uint256"
        },
        {
          "internalType": "uint256",
          "name": "id",
          "type": "uint256"
        }
      ],
      "name": "getRandomArbiters",
      "outputs": [
        {
          "internalType": "address",
          "name": "x",
          "type": "address"
        },
        {
          "internalType": "address",
          "name": "y",
          "type": "address"
        },
        {
          "internalType": "address",
          "name": "z",
          "type": "address"
        }
      ],
      "stateMutability": "nonpayable",
      "type": "function"
    },
    {
      "inputs": [],
      "name": "owner",
      "outputs": [
        {
          "internalType": "address",
          "name": "",
          "type": "address"
        }
      ],
      "stateMutability": "view",
      "type": "function"
    },
    {
      "inputs": [],
      "name": "renounceOwnership",
      "outputs": [],
      "stateMutability": "nonpayable",
      "type": "function"
    },
    {
      "inputs": [
        {
          "internalType": "uint256",
          "name": "itemId",
          "type": "uint256"
        }
      ],
      "name": "resolveDispute",
      "outputs": [],
      "stateMutability": "nonpayable",
      "type": "function"
    },
    {
      "inputs": [
        {
          "internalType": "uint256",
          "name": "amount",
          "type": "uint256"
        }
      ],
      "name": "setArbiterStakeAmount",
      "outputs": [],
      "stateMutability": "nonpayable",
      "type": "function"
    },
    {
      "inputs": [
        {
          "internalType": "uint256",
          "name": "amount",
          "type": "uint256"
        }
      ],
      "name": "setDisputeCreationStakeAmount",
      "outputs": [],
      "stateMutability": "nonpayable",
      "type": "function"
    },
    {
      "inputs": [
        {
          "internalType": "address",
          "name": "_contractOneAddress",
          "type": "address"
        },
        {
          "internalType": "uint256",
          "name": "_x",
          "type": "uint256"
        }
      ],
      "name": "setValueXByInitializing",
      "outputs": [],
      "stateMutability": "nonpayable",
      "type": "function"
    },
    {
      "inputs": [
        {
          "internalType": "address",
          "name": "newOwner",
          "type": "address"
        }
      ],
      "name": "transferOwnership",
      "outputs": [],
      "stateMutability": "nonpayable",
      "type": "function"
    },
    {
      "stateMutability": "payable",
      "type": "receive"
    }
  ],
  "bytecode": "0x6080604052660136233fde5000600355660136233fde500060045534801561002657600080fd5b5061004361003861004860201b60201c565b61005060201b60201c565b610114565b600033905090565b60008060009054906101000a900473ffffffffffffffffffffffffffffffffffffffff169050816000806101000a81548173ffffffffffffffffffffffffffffffffffffffff021916908373ffffffffffffffffffffffffffffffffffffffff1602179055508173ffffffffffffffffffffffffffffffffffffffff168173ffffffffffffffffffffffffffffffffffffffff167f8be0079c531659141344cd1fd0a4f28419497f9722a3daafe3b4186f6b6457e060405160405180910390a35050565b61248d80620001246000396000f3fe6080604052600436106100e15760003560e01c80639d4915451161007f578063c2b7b86811610059578063c2b7b86814610296578063d40745a3146102bf578063f2fde38b146102ea578063f847946514610313576100e8565b80639d49154514610205578063a2787f681461022e578063a35a6c581461026d576100e8565b806320f3a3c1116100bb57806320f3a3c11461017e57806368175996146101a7578063715018a6146101c35780638da5cb5b146101da576100e8565b80631dd9997f146100ed5780631fe00f6c14610118578063201c676314610141576100e8565b366100e857005b600080fd5b3480156100f957600080fd5b5061010261032f565b60405161010f9190611d70565b60405180910390f35b34801561012457600080fd5b5061013f600480360381019061013a91906118f0565b610555565b005b34801561014d57600080fd5b50610168600480360381019061016391906118f0565b610663565b6040516101759190611d4e565b60405180910390f35b34801561018a57600080fd5b506101a560048036038101906101a09190611846565b610704565b005b6101c160048036038101906101bc91906118ab565b610708565b005b3480156101cf57600080fd5b506101d8610886565b005b3480156101e657600080fd5b506101ef61090e565b6040516101fc9190611cfc565b60405180910390f35b34801561021157600080fd5b5061022c600480360381019061022791906118f0565b610937565b005b34801561023a57600080fd5b5061025560048036038101906102509190611919565b61096f565b60405161026493929190611d17565b60405180910390f35b34801561027957600080fd5b50610294600480360381019061028f91906118f0565b610c9b565b005b3480156102a257600080fd5b506102bd60048036038101906102b891906118f0565b610da9565b005b3480156102cb57600080fd5b506102d4610f94565b6040516102e19190611d70565b60405180910390f35b3480156102f657600080fd5b50610311600480360381019061030c91906117ce565b611204565b005b61032d600480360381019061032891906117f7565b6112fc565b005b6060600060015490506000808267ffffffffffffffff81111561037b577f4e487b7100000000000000000000000000000000000000000000000000000000600052604160045260246000fd5b6040519080825280602002602001820160405280156103b457816020015b6103a16115e3565b8152602001906001900390816103995790505b50905060005b8381101561054b5760006001826103d19190611f7c565b90506000600560008381526020019081526020016000206040518060a0016040529081600082015481526020016001820160009054906101000a900460ff161515151581526020016001820160019054906101000a900460ff161515151581526020016001820160029054906101000a900460ff1615151515815260200160028201805461045e90612081565b80601f016020809104026020016040519081016040528092919081815260200182805461048a90612081565b80156104d75780601f106104ac576101008083540402835291602001916104d7565b820191906000526020600020905b8154815290600101906020018083116104ba57829003601f168201915b50505050508152505090508084868151811061051c577f4e487b7100000000000000000000000000000000000000000000000000000000600052603260045260246000fd5b60200260200101819052506001856105349190611f7c565b945050508080610543906120b3565b9150506103ba565b5080935050505090565b61055d611517565b73ffffffffffffffffffffffffffffffffffffffff1661057b61090e565b73ffffffffffffffffffffffffffffffffffffffff16146105d1576040517f08c379a00000000000000000000000000000000000000000000000000000000081526004016105c890611e12565b60405180910390fd5b60008111610614576040517f08c379a000000000000000000000000000000000000000000000000000000000815260040161060b90611df2565b60405180910390fd5b600354811415610659576040517f08c379a000000000000000000000000000000000000000000000000000000000815260040161065090611eb2565b60405180910390fd5b8060038190555050565b6060600660008381526020019081526020016000208054806020026020016040519081016040528092919081815260200182805480156106f857602002820191906000526020600020905b8160009054906101000a900473ffffffffffffffffffffffffffffffffffffffff1673ffffffffffffffffffffffffffffffffffffffff16815260200190600101908083116106ae575b50505050509050919050565b5050565b60035434101561074d576040517f08c379a000000000000000000000000000000000000000000000000000000000815260040161074490611e72565b60405180910390fd5b600060015490506001816107619190611f7c565b905060008190506040518060a0016040528082815260200160001515815260200160011515815260200160001515815260200185858080601f016020809104026020016040519081016040528093929190818152602001838380828437600081840152601f19601f82011690508083019250505050505050815250600560008381526020019081526020016000206000820151816000015560208201518160010160006101000a81548160ff02191690831515021790555060408201518160010160016101000a81548160ff02191690831515021790555060608201518160010160026101000a81548160ff0219169083151502179055506080820151816002019080519060200190610875929190611618565b509050508160018190555050505050565b61088e611517565b73ffffffffffffffffffffffffffffffffffffffff166108ac61090e565b73ffffffffffffffffffffffffffffffffffffffff1614610902576040517f08c379a00000000000000000000000000000000000000000000000000000000081526004016108f990611e12565b60405180910390fd5b61090c600061151f565b565b60008060009054906101000a900473ffffffffffffffffffffffffffffffffffffffff16905090565b600060056000838152602001908152602001600020905060008160010160016101000a81548160ff0219169083151502179055505050565b60008060006005600085815260200190815260200160002060010160009054906101000a900460ff16156109d8576040517f08c379a00000000000000000000000000000000000000000000000000000000081526004016109cf90611e32565b60405180910390fd5b6005600085815260200190815260200160002060010160029054906101000a900460ff16610a3b576040517f08c379a0000000000000000000000000000000000000000000000000000000008152600401610a3290611d92565b60405180910390fd5b600060066000868152602001908152602001600020805480602002602001604051908101604052809291908181526020018280548015610ad057602002820191906000526020600020905b8160009054906101000a900473ffffffffffffffffffffffffffffffffffffffff1673ffffffffffffffffffffffffffffffffffffffff1681526020019060010190808311610a86575b50505050509050808881518110610b10577f4e487b7100000000000000000000000000000000000000000000000000000000600052603260045260246000fd5b60200260200101519350808781518110610b53577f4e487b7100000000000000000000000000000000000000000000000000000000600052603260045260246000fd5b60200260200101519250808681518110610b96577f4e487b7100000000000000000000000000000000000000000000000000000000600052603260045260246000fd5b6020026020010151915060016005600087815260200190815260200160002060010160026101000a81548160ff02191690831515021790555060405180606001604052808573ffffffffffffffffffffffffffffffffffffffff1673ffffffffffffffffffffffffffffffffffffffff1681526020018473ffffffffffffffffffffffffffffffffffffffff1673ffffffffffffffffffffffffffffffffffffffff1681526020018373ffffffffffffffffffffffffffffffffffffffff1673ffffffffffffffffffffffffffffffffffffffff1681525060066000878152602001908152602001600020906003610c8f92919061169e565b50509450945094915050565b610ca3611517565b73ffffffffffffffffffffffffffffffffffffffff16610cc161090e565b73ffffffffffffffffffffffffffffffffffffffff1614610d17576040517f08c379a0000000000000000000000000000000000000000000000000000000008152600401610d0e90611e12565b60405180910390fd5b60008111610d5a576040517f08c379a0000000000000000000000000000000000000000000000000000000008152600401610d5190611df2565b60405180910390fd5b600454811415610d9f576040517f08c379a0000000000000000000000000000000000000000000000000000000008152600401610d9690611eb2565b60405180910390fd5b8060048190555050565b610db1611517565b73ffffffffffffffffffffffffffffffffffffffff16610dcf61090e565b73ffffffffffffffffffffffffffffffffffffffff1614610e25576040517f08c379a0000000000000000000000000000000000000000000000000000000008152600401610e1c90611e12565b60405180910390fd5b600060056000838152602001908152602001600020905060018160010160006101000a81548160ff021916908315150217905550600160026000828254610e6c9190611f7c565b925050819055506000610e7e83610663565b905060005b8151811015610f8e576000828281518110610ec7577f4e487b7100000000000000000000000000000000000000000000000000000000600052603260045260246000fd5b602002602001015173ffffffffffffffffffffffffffffffffffffffff16600454604051610ef490611ce7565b60006040518083038185875af1925050503d8060008114610f31576040519150601f19603f3d011682016040523d82523d6000602084013e610f36565b606091505b5050905080610f7a576040517f08c379a0000000000000000000000000000000000000000000000000000000008152600401610f7190611e52565b60405180910390fd5b508080610f86906120b3565b915050610e83565b50505050565b6060600060015490506000600254600154610faf9190611fd2565b90506000808267ffffffffffffffff811115610ff4577f4e487b7100000000000000000000000000000000000000000000000000000000600052604160045260246000fd5b60405190808252806020026020018201604052801561102d57816020015b61101a6115e3565b8152602001906001900390816110125790505b50905060005b848110156111f9576005600060018361104c9190611f7c565b815260200190815260200160002060010160009054906101000a900460ff166111e657600060018261107e9190611f7c565b90506000600560008381526020019081526020016000206040518060a0016040529081600082015481526020016001820160009054906101000a900460ff161515151581526020016001820160019054906101000a900460ff161515151581526020016001820160029054906101000a900460ff1615151515815260200160028201805461110b90612081565b80601f016020809104026020016040519081016040528092919081815260200182805461113790612081565b80156111845780601f1061115957610100808354040283529160200191611184565b820191906000526020600020905b81548152906001019060200180831161116757829003601f168201915b5050505050815250509050808486815181106111c9577f4e487b7100000000000000000000000000000000000000000000000000000000600052603260045260246000fd5b60200260200101819052506001856111e19190611f7c565b945050505b80806111f1906120b3565b915050611033565b508094505050505090565b61120c611517565b73ffffffffffffffffffffffffffffffffffffffff1661122a61090e565b73ffffffffffffffffffffffffffffffffffffffff1614611280576040517f08c379a000000000000000000000000000000000000000000000000000000000815260040161127790611e12565b60405180910390fd5b600073ffffffffffffffffffffffffffffffffffffffff168173ffffffffffffffffffffffffffffffffffffffff1614156112f0576040517f08c379a00000000000000000000000000000000000000000000000000000000081526004016112e790611db2565b60405180910390fd5b6112f98161151f565b50565b6005600082815260200190815260200160002060010160009054906101000a900460ff16801561134c57506005600082815260200190815260200160002060010160019054906101000a900460ff165b61138b576040517f08c379a000000000000000000000000000000000000000000000000000000000815260040161138290611dd2565b60405180910390fd5b6004543410156113d0576040517f08c379a00000000000000000000000000000000000000000000000000000000081526004016113c790611e72565b60405180910390fd5b60008373ffffffffffffffffffffffffffffffffffffffff16634d813120336040518263ffffffff1660e01b815260040161140b9190611cfc565b60206040518083038186803b15801561142357600080fd5b505afa158015611437573d6000803e3d6000fd5b505050506040513d601f19601f8201168201806040525081019061145b9190611882565b90508061149d576040517f08c379a000000000000000000000000000000000000000000000000000000000815260040161149490611e92565b60405180910390fd5b60066000838152602001908152602001600020839080600181540180825580915050600190039060005260206000200160009091909190916101000a81548173ffffffffffffffffffffffffffffffffffffffff021916908373ffffffffffffffffffffffffffffffffffffffff16021790555050505050565b600033905090565b60008060009054906101000a900473ffffffffffffffffffffffffffffffffffffffff169050816000806101000a81548173ffffffffffffffffffffffffffffffffffffffff021916908373ffffffffffffffffffffffffffffffffffffffff1602179055508173ffffffffffffffffffffffffffffffffffffffff168173ffffffffffffffffffffffffffffffffffffffff167f8be0079c531659141344cd1fd0a4f28419497f9722a3daafe3b4186f6b6457e060405160405180910390a35050565b6040518060a0016040528060008152602001600015158152602001600015158152602001600015158152602001606081525090565b82805461162490612081565b90600052602060002090601f016020900481019282611646576000855561168d565b82601f1061165f57805160ff191683800117855561168d565b8280016001018555821561168d579182015b8281111561168c578251825591602001919060010190611671565b5b50905061169a9190611728565b5090565b828054828255906000526020600020908101928215611717579160200282015b828111156117165782518260006101000a81548173ffffffffffffffffffffffffffffffffffffffff021916908373ffffffffffffffffffffffffffffffffffffffff160217905550916020019190600101906116be565b5b5090506117249190611728565b5090565b5b80821115611741576000816000905550600101611729565b5090565b60008135905061175481612412565b92915050565b60008151905061176981612429565b92915050565b60008083601f84011261178157600080fd5b8235905067ffffffffffffffff81111561179a57600080fd5b6020830191508360018202830111156117b257600080fd5b9250929050565b6000813590506117c881612440565b92915050565b6000602082840312156117e057600080fd5b60006117ee84828501611745565b91505092915050565b60008060006060848603121561180c57600080fd5b600061181a86828701611745565b935050602061182b86828701611745565b925050604061183c868287016117b9565b9150509250925092565b6000806040838503121561185957600080fd5b600061186785828601611745565b9250506020611878858286016117b9565b9150509250929050565b60006020828403121561189457600080fd5b60006118a28482850161175a565b91505092915050565b600080602083850312156118be57600080fd5b600083013567ffffffffffffffff8111156118d857600080fd5b6118e48582860161176f565b92509250509250929050565b60006020828403121561190257600080fd5b6000611910848285016117b9565b91505092915050565b6000806000806080858703121561192f57600080fd5b600061193d878288016117b9565b945050602061194e878288016117b9565b935050604061195f878288016117b9565b9250506060611970878288016117b9565b91505092959194509250565b600061198883836119a8565b60208301905092915050565b60006119a08383611c62565b905092915050565b6119b181612006565b82525050565b6119c081612006565b82525050565b60006119d182611ef2565b6119db8185611f2d565b93506119e683611ed2565b8060005b83811015611a175781516119fe888261197c565b9750611a0983611f13565b9250506001810190506119ea565b5085935050505092915050565b6000611a2f82611efd565b611a398185611f3e565b935083602082028501611a4b85611ee2565b8060005b85811015611a875784840389528151611a688582611994565b9450611a7383611f20565b925060208a01995050600181019050611a4f565b50829750879550505050505092915050565b611aa281612018565b82525050565b6000611ab382611f08565b611abd8185611f5a565b9350611acd81856020860161204e565b611ad68161215a565b840191505092915050565b6000611aee602f83611f6b565b9150611af98261216b565b604082019050919050565b6000611b11602683611f6b565b9150611b1c826121ba565b604082019050919050565b6000611b34604f83611f6b565b9150611b3f82612209565b606082019050919050565b6000611b57601c83611f6b565b9150611b628261227e565b602082019050919050565b6000611b7a602083611f6b565b9150611b85826122a7565b602082019050919050565b6000611b9d600a83611f6b565b9150611ba8826122d0565b602082019050919050565b6000611bc0602083611f6b565b9150611bcb826122f9565b602082019050919050565b6000611be3600083611f4f565b9150611bee82612322565b600082019050919050565b6000611c06604383611f6b565b9150611c1182612325565b606082019050919050565b6000611c29601883611f6b565b9150611c348261239a565b602082019050919050565b6000611c4c602d83611f6b565b9150611c57826123c3565b604082019050919050565b600060a083016000830151611c7a6000860182611cd8565b506020830151611c8d6020860182611a99565b506040830151611ca06040860182611a99565b506060830151611cb36060860182611a99565b5060808301518482036080860152611ccb8282611aa8565b9150508091505092915050565b611ce181612044565b82525050565b6000611cf282611bd6565b9150819050919050565b6000602082019050611d1160008301846119b7565b92915050565b6000606082019050611d2c60008301866119b7565b611d3960208301856119b7565b611d4660408301846119b7565b949350505050565b60006020820190508181036000830152611d6881846119c6565b905092915050565b60006020820190508181036000830152611d8a8184611a24565b905092915050565b60006020820190508181036000830152611dab81611ae1565b9050919050565b60006020820190508181036000830152611dcb81611b04565b9050919050565b60006020820190508181036000830152611deb81611b27565b9050919050565b60006020820190508181036000830152611e0b81611b4a565b9050919050565b60006020820190508181036000830152611e2b81611b6d565b9050919050565b60006020820190508181036000830152611e4b81611b90565b9050919050565b60006020820190508181036000830152611e6b81611bb3565b9050919050565b60006020820190508181036000830152611e8b81611bf9565b9050919050565b60006020820190508181036000830152611eab81611c1c565b9050919050565b60006020820190508181036000830152611ecb81611c3f565b9050919050565b6000819050602082019050919050565b6000819050602082019050919050565b600081519050919050565b600081519050919050565b600081519050919050565b6000602082019050919050565b6000602082019050919050565b600082825260208201905092915050565b600082825260208201905092915050565b600081905092915050565b600082825260208201905092915050565b600082825260208201905092915050565b6000611f8782612044565b9150611f9283612044565b9250827fffffffffffffffffffffffffffffffffffffffffffffffffffffffffffffffff03821115611fc757611fc66120fc565b5b828201905092915050565b6000611fdd82612044565b9150611fe883612044565b925082821015611ffb57611ffa6120fc565b5b828203905092915050565b600061201182612024565b9050919050565b60008115159050919050565b600073ffffffffffffffffffffffffffffffffffffffff82169050919050565b6000819050919050565b60005b8381101561206c578082015181840152602081019050612051565b8381111561207b576000848401525b50505050565b6000600282049050600182168061209957607f821691505b602082108114156120ad576120ac61212b565b5b50919050565b60006120be82612044565b91507fffffffffffffffffffffffffffffffffffffffffffffffffffffffffffffffff8214156120f1576120f06120fc565b5b600182019050919050565b7f4e487b7100000000000000000000000000000000000000000000000000000000600052601160045260246000fd5b7f4e487b7100000000000000000000000000000000000000000000000000000000600052602260045260246000fd5b6000601f19601f8301169050919050565b7f5265717565737420666f722072616e646f6d206172626974657273206861732060008201527f616c7265616479206f6363757265640000000000000000000000000000000000602082015250565b7f4f776e61626c653a206e6577206f776e657220697320746865207a65726f206160008201527f6464726573730000000000000000000000000000000000000000000000000000602082015250565b7f5468697320446973707574652048617320416c7265616479206265656e20526560008201527f736f6c766564206f7220746865206469737075746520697320636c6f7365642060208201527f666f72206170706c69636174696f6e0000000000000000000000000000000000604082015250565b7f7374616b656420616d6f756e742063616e6e6f74206265207a65726f00000000600082015250565b7f4f776e61626c653a2063616c6c6572206973206e6f7420746865206f776e6572600082015250565b7f4469737075746520496400000000000000000000000000000000000000000000600082015250565b7f416e206572726f72206f636375726564207768696c6520726566756e64696e67600082015250565b50565b7f4d7573742073656e64207374616b6520616d6f756e742067726561746572206f60008201527f7220657175616c20746f20636f6e74726163742773207374616b656420616d6f60208201527f756e740000000000000000000000000000000000000000000000000000000000604082015250565b7f53656e646572206973206e6f7420616e20617262697465720000000000000000600082015250565b7f526573657474696e67207374616b6520616d6f756e7420746f2069747320637560008201527f7272656e7420616d6f756e742100000000000000000000000000000000000000602082015250565b61241b81612006565b811461242657600080fd5b50565b61243281612018565b811461243d57600080fd5b50565b61244981612044565b811461245457600080fd5b5056fea26469706673582212209fed83fb3e01c3f795ca98bf9152164f6e7ca9278592c4741a934d6e1b469ddb64736f6c63430008040033",
  "linkReferences": {},
  "deployedLinkReferences": {}
}