{
  "_format": "hh-sol-artifact-1",
  "contractName": "ArbiterVotingTwo",
  "sourceName": "contracts/VotingTwo.sol",
  "abi": [
    {
      "anonymous": false,
      "inputs": [
        {
          "indexed": true,
          "internalType": "address",
          "name": "previousOwner",
          "type": "address"
        },
        {
          "indexed": true,
          "internalType": "address",
          "name": "newOwner",
          "type": "address"
        }
      ],
      "name": "OwnershipTransferred",
      "type": "event"
    },
    {
      "inputs": [
        {
          "internalType": "uint256",
          "name": "",
          "type": "uint256"
        }
      ],
      "name": "ballots",
      "outputs": [
        {
          "internalType": "bool",
          "name": "isActive",
          "type": "bool"
        },
        {
          "internalType": "uint64",
          "name": "forCount",
          "type": "uint64"
        },
        {
          "internalType": "uint64",
          "name": "againstCount",
          "type": "uint64"
        },
        {
          "internalType": "uint256",
          "name": "winner",
          "type": "uint256"
        },
        {
          "internalType": "uint256",
          "name": "ballotId",
          "type": "uint256"
        },
        {
          "internalType": "uint256",
          "name": "disputeId",
          "type": "uint256"
        }
      ],
      "stateMutability": "view",
      "type": "function"
    },
    {
      "inputs": [
        {
          "internalType": "uint256",
          "name": "disputeId",
          "type": "uint256"
        }
      ],
      "name": "computeWinner",
      "outputs": [
        {
          "internalType": "uint256",
          "name": "",
          "type": "uint256"
        }
      ],
      "stateMutability": "nonpayable",
      "type": "function"
    },
    {
      "inputs": [
        {
          "internalType": "address[]",
          "name": "arbiters",
          "type": "address[]"
        },
        {
          "internalType": "uint256",
          "name": "disputeId",
          "type": "uint256"
        }
      ],
      "name": "createBallot",
      "outputs": [],
      "stateMutability": "nonpayable",
      "type": "function"
    },
    {
      "inputs": [
        {
          "internalType": "uint256",
          "name": "disputeId",
          "type": "uint256"
        }
      ],
      "name": "getWinner",
      "outputs": [
        {
          "internalType": "uint256",
          "name": "",
          "type": "uint256"
        }
      ],
      "stateMutability": "view",
      "type": "function"
    },
    {
      "inputs": [],
      "name": "owner",
      "outputs": [
        {
          "internalType": "address",
          "name": "",
          "type": "address"
        }
      ],
      "stateMutability": "view",
      "type": "function"
    },
    {
      "inputs": [],
      "name": "renounceOwnership",
      "outputs": [],
      "stateMutability": "nonpayable",
      "type": "function"
    },
    {
      "inputs": [
        {
          "internalType": "address",
          "name": "newOwner",
          "type": "address"
        }
      ],
      "name": "transferOwnership",
      "outputs": [],
      "stateMutability": "nonpayable",
      "type": "function"
    },
    {
      "inputs": [
        {
          "internalType": "uint8",
          "name": "option",
          "type": "uint8"
        },
        {
          "internalType": "uint256",
          "name": "disputeId",
          "type": "uint256"
        }
      ],
      "name": "vote",
      "outputs": [],
      "stateMutability": "nonpayable",
      "type": "function"
    },
    {
      "inputs": [
        {
          "internalType": "address",
          "name": "",
          "type": "address"
        }
      ],
      "name": "voters",
      "outputs": [
        {
          "internalType": "uint8",
          "name": "votedOption",
          "type": "uint8"
        },
        {
          "internalType": "bool",
          "name": "hasVoted",
          "type": "bool"
        },
        {
          "internalType": "uint256",
          "name": "weight",
          "type": "uint256"
        },
        {
          "internalType": "uint256",
          "name": "id",
          "type": "uint256"
        }
      ],
      "stateMutability": "view",
      "type": "function"
    }
  ],
  "bytecode": "0x608060405234801561001057600080fd5b5061002d61002261003260201b60201c565b61003a60201b60201c565b6100fe565b600033905090565b60008060009054906101000a900473ffffffffffffffffffffffffffffffffffffffff169050816000806101000a81548173ffffffffffffffffffffffffffffffffffffffff021916908373ffffffffffffffffffffffffffffffffffffffff1602179055508173ffffffffffffffffffffffffffffffffffffffff168173ffffffffffffffffffffffffffffffffffffffff167f8be0079c531659141344cd1fd0a4f28419497f9722a3daafe3b4186f6b6457e060405160405180910390a35050565b6117438061010d6000396000f3fe608060405234801561001057600080fd5b50600436106100935760003560e01c8063879cbc3011610066578063879cbc30146101235780638da5cb5b14610153578063a3ec138d14610171578063d3f29ace146101a4578063f2fde38b146101c057610093565b80634129b2c9146100985780635c632b38146100c8578063612ac9df146100fd578063715018a614610119575b600080fd5b6100b260048036038101906100ad9190611080565b6101dc565b6040516100bf9190611381565b60405180910390f35b6100e260048036038101906100dd9190611080565b610236565b6040516100f496959493929190611240565b60405180910390f35b61011760048036038101906101129190611028565b6102b7565b005b61012161082c565b005b61013d60048036038101906101389190611080565b6108b4565b60405161014a9190611381565b60405180910390f35b61015b610a72565b6040516101689190611225565b60405180910390f35b61018b60048036038101906101869190610fff565b610a9b565b60405161019b949392919061139c565b60405180910390f35b6101be60048036038101906101b991906110a9565b610ae5565b005b6101da60048036038101906101d59190610fff565b610db2565b005b60008060018381548110610219577f4e487b7100000000000000000000000000000000000000000000000000000000600052603260045260246000fd5b906000526020600020906005020190508060010154915050919050565b6001818154811061024657600080fd5b90600052602060002090600502016000915090508060000160009054906101000a900460ff16908060000160019054906101000a900467ffffffffffffffff16908060000160099054906101000a900467ffffffffffffffff16908060010154908060020154908060030154905086565b6102bf610eaa565b73ffffffffffffffffffffffffffffffffffffffff166102dd610a72565b73ffffffffffffffffffffffffffffffffffffffff1614610333576040517f08c379a000000000000000000000000000000000000000000000000000000000815260040161032a90611341565b60405180910390fd5b600060018054905090506000600190508060018160018154018082558091505003906000526020600020905050600081838154811061039b577f4e487b7100000000000000000000000000000000000000000000000000000000600052603260045260246000fd5b906000526020600020906005020160000160006101000a81548160ff02191690831515021790555060008183815481106103fe577f4e487b7100000000000000000000000000000000000000000000000000000000600052603260045260246000fd5b906000526020600020906005020160000160016101000a81548167ffffffffffffffff021916908367ffffffffffffffff1602179055506000818381548110610470577f4e487b7100000000000000000000000000000000000000000000000000000000600052603260045260246000fd5b906000526020600020906005020160000160096101000a81548167ffffffffffffffff021916908367ffffffffffffffff160217905550828183815481106104e1577f4e487b7100000000000000000000000000000000000000000000000000000000600052603260045260246000fd5b90600052602060002090600502016002018190555082818381548110610530577f4e487b7100000000000000000000000000000000000000000000000000000000600052603260045260246000fd5b90600052602060002090600502016003018190555060005b8585905081101561082457600082848154811061058e577f4e487b7100000000000000000000000000000000000000000000000000000000600052603260045260246000fd5b906000526020600020906005020160040160008888858181106105da577f4e487b7100000000000000000000000000000000000000000000000000000000600052603260045260246000fd5b90506020020160208101906105ef9190610fff565b73ffffffffffffffffffffffffffffffffffffffff1673ffffffffffffffffffffffffffffffffffffffff16815260200190815260200160002060000160016101000a81548160ff021916908315150217905550600082848154811061067e577f4e487b7100000000000000000000000000000000000000000000000000000000600052603260045260246000fd5b906000526020600020906005020160040160008888858181106106ca577f4e487b7100000000000000000000000000000000000000000000000000000000600052603260045260246000fd5b90506020020160208101906106df9190610fff565b73ffffffffffffffffffffffffffffffffffffffff1673ffffffffffffffffffffffffffffffffffffffff16815260200190815260200160002060000160006101000a81548160ff021916908360ff160217905550600182848154811061076f577f4e487b7100000000000000000000000000000000000000000000000000000000600052603260045260246000fd5b906000526020600020906005020160040160008888858181106107bb577f4e487b7100000000000000000000000000000000000000000000000000000000600052603260045260246000fd5b90506020020160208101906107d09190610fff565b73ffffffffffffffffffffffffffffffffffffffff1673ffffffffffffffffffffffffffffffffffffffff16815260200190815260200160002060010181905550808061081c90611499565b915050610548565b505050505050565b610834610eaa565b73ffffffffffffffffffffffffffffffffffffffff16610852610a72565b73ffffffffffffffffffffffffffffffffffffffff16146108a8576040517f08c379a000000000000000000000000000000000000000000000000000000000815260040161089f90611341565b60405180910390fd5b6108b26000610eb2565b565b60006108be610eaa565b73ffffffffffffffffffffffffffffffffffffffff166108dc610a72565b73ffffffffffffffffffffffffffffffffffffffff1614610932576040517f08c379a000000000000000000000000000000000000000000000000000000000815260040161092990611341565b60405180910390fd5b60006001838154811061096e577f4e487b7100000000000000000000000000000000000000000000000000000000600052603260045260246000fd5b9060005260206000209060050201905060008160000160009054906101000a900460ff169050806109d4576040517f08c379a00000000000000000000000000000000000000000000000000000000081526004016109cb906112e1565b60405180910390fd5b60008260000160019054906101000a900467ffffffffffffffff1667ffffffffffffffff16905060008360000160099054906101000a900467ffffffffffffffff1667ffffffffffffffff16905060008460000160006101000a81548160ff02191690831515021790555080821115610a5c5781846001018190555081945050505050610a6d565b808460010181905550809450505050505b919050565b60008060009054906101000a900473ffffffffffffffffffffffffffffffffffffffff16905090565b60026020528060005260406000206000915090508060000160009054906101000a900460ff16908060000160019054906101000a900460ff16908060010154908060020154905084565b60018260ff161480610afa575060028260ff16145b610b39576040517f08c379a0000000000000000000000000000000000000000000000000000000008152600401610b3090611301565b60405180910390fd5b600060018281548110610b75577f4e487b7100000000000000000000000000000000000000000000000000000000600052603260045260246000fd5b9060005260206000209060050201905060008160000160009054906101000a900460ff16905080610bdb576040517f08c379a0000000000000000000000000000000000000000000000000000000008152600401610bd290611321565b60405180910390fd5b60008260040160003373ffffffffffffffffffffffffffffffffffffffff1673ffffffffffffffffffffffffffffffffffffffff16815260200190815260200160002090506001816001015414610c67576040517f08c379a0000000000000000000000000000000000000000000000000000000008152600401610c5e90611361565b60405180910390fd5b8060000160019054906101000a900460ff1615610cb9576040517f08c379a0000000000000000000000000000000000000000000000000000000008152600401610cb0906112a1565b60405180910390fd5b848160000160006101000a81548160ff021916908360ff16021790555060018160000160016101000a81548160ff0219169083151502179055506000816001018190555060018560ff161415610d5c5760018360000160018282829054906101000a900467ffffffffffffffff16610d3191906113f2565b92506101000a81548167ffffffffffffffff021916908367ffffffffffffffff160217905550610dab565b60018360000160098282829054906101000a900467ffffffffffffffff16610d8491906113f2565b92506101000a81548167ffffffffffffffff021916908367ffffffffffffffff1602179055505b5050505050565b610dba610eaa565b73ffffffffffffffffffffffffffffffffffffffff16610dd8610a72565b73ffffffffffffffffffffffffffffffffffffffff1614610e2e576040517f08c379a0000000000000000000000000000000000000000000000000000000008152600401610e2590611341565b60405180910390fd5b600073ffffffffffffffffffffffffffffffffffffffff168173ffffffffffffffffffffffffffffffffffffffff161415610e9e576040517f08c379a0000000000000000000000000000000000000000000000000000000008152600401610e95906112c1565b60405180910390fd5b610ea781610eb2565b50565b600033905090565b60008060009054906101000a900473ffffffffffffffffffffffffffffffffffffffff169050816000806101000a81548173ffffffffffffffffffffffffffffffffffffffff021916908373ffffffffffffffffffffffffffffffffffffffff1602179055508173ffffffffffffffffffffffffffffffffffffffff168173ffffffffffffffffffffffffffffffffffffffff167f8be0079c531659141344cd1fd0a4f28419497f9722a3daafe3b4186f6b6457e060405160405180910390a35050565b600081359050610f85816116c8565b92915050565b60008083601f840112610f9d57600080fd5b8235905067ffffffffffffffff811115610fb657600080fd5b602083019150836020820283011115610fce57600080fd5b9250929050565b600081359050610fe4816116df565b92915050565b600081359050610ff9816116f6565b92915050565b60006020828403121561101157600080fd5b600061101f84828501610f76565b91505092915050565b60008060006040848603121561103d57600080fd5b600084013567ffffffffffffffff81111561105757600080fd5b61106386828701610f8b565b9350935050602061107686828701610fd5565b9150509250925092565b60006020828403121561109257600080fd5b60006110a084828501610fd5565b91505092915050565b600080604083850312156110bc57600080fd5b60006110ca85828601610fea565b92505060206110db85828601610fd5565b9150509250929050565b6110ee81611430565b82525050565b6110fd81611442565b82525050565b60006111106021836113e1565b915061111b82611511565b604082019050919050565b60006111336026836113e1565b915061113e82611560565b604082019050919050565b60006111566038836113e1565b9150611161826115af565b604082019050919050565b6000611179603e836113e1565b9150611184826115fe565b604082019050919050565b600061119c601f836113e1565b91506111a78261164d565b602082019050919050565b60006111bf6020836113e1565b91506111ca82611676565b602082019050919050565b60006111e26014836113e1565b91506111ed8261169f565b602082019050919050565b6112018161146e565b82525050565b61121081611478565b82525050565b61121f8161148c565b82525050565b600060208201905061123a60008301846110e5565b92915050565b600060c08201905061125560008301896110f4565b6112626020830188611207565b61126f6040830187611207565b61127c60608301866111f8565b61128960808301856111f8565b61129660a08301846111f8565b979650505050505050565b600060208201905081810360008301526112ba81611103565b9050919050565b600060208201905081810360008301526112da81611126565b9050919050565b600060208201905081810360008301526112fa81611149565b9050919050565b6000602082019050818103600083015261131a8161116c565b9050919050565b6000602082019050818103600083015261133a8161118f565b9050919050565b6000602082019050818103600083015261135a816111b2565b9050919050565b6000602082019050818103600083015261137a816111d5565b9050919050565b600060208201905061139660008301846111f8565b92915050565b60006080820190506113b16000830187611216565b6113be60208301866110f4565b6113cb60408301856111f8565b6113d860608301846111f8565b95945050505050565b600082825260208201905092915050565b60006113fd82611478565b915061140883611478565b92508267ffffffffffffffff03821115611425576114246114e2565b5b828201905092915050565b600061143b8261144e565b9050919050565b60008115159050919050565b600073ffffffffffffffffffffffffffffffffffffffff82169050919050565b6000819050919050565b600067ffffffffffffffff82169050919050565b600060ff82169050919050565b60006114a48261146e565b91507fffffffffffffffffffffffffffffffffffffffffffffffffffffffffffffffff8214156114d7576114d66114e2565b5b600182019050919050565b7f4e487b7100000000000000000000000000000000000000000000000000000000600052601160045260246000fd5b7f596f75206861766520616c72656164792063617374656420796f757220766f7460008201527f6500000000000000000000000000000000000000000000000000000000000000602082015250565b7f4f776e61626c653a206e6577206f776e657220697320746865207a65726f206160008201527f6464726573730000000000000000000000000000000000000000000000000000602082015250565b7f546869732062616c6c6f7420616c72656164792068617320612077696e6e657260008201527f20616e64206973206e6f206c6f6e676572206163746976650000000000000000602082015250565b7f596f7520617265206e6f7420766f74696e67207269676874212052656d656d6260008201527f657220746865206f7074696f6e2073686f756c642062652031206f7220320000602082015250565b7f546869732062616c6c6f74206973206e6f206c6f6e6765722061637469766500600082015250565b7f4f776e61626c653a2063616c6c6572206973206e6f7420746865206f776e6572600082015250565b7f556e617574686f72697a656420746f20766f7465000000000000000000000000600082015250565b6116d181611430565b81146116dc57600080fd5b50565b6116e88161146e565b81146116f357600080fd5b50565b6116ff8161148c565b811461170a57600080fd5b5056fea2646970667358221220913672745a842efa12690014a3e23203fd08b45faa1449f5ee6a9efcf507eb7a64736f6c63430008040033",
  "linkReferences": {},
  "deployedLinkReferences": {}
}