{
  "_format": "hh-sol-artifact-1",
  "contractName": "ResolvedDisputeNft",
  "sourceName": "contracts/ResolvedDispute.sol",
  "abi": [
    {
      "inputs": [],
      "stateMutability": "nonpayable",
      "type": "constructor"
    },
    {
      "anonymous": false,
      "inputs": [
        {
          "indexed": true,
          "internalType": "address",
          "name": "account",
          "type": "address"
        },
        {
          "indexed": true,
          "internalType": "address",
          "name": "operator",
          "type": "address"
        },
        {
          "indexed": false,
          "internalType": "bool",
          "name": "approved",
          "type": "bool"
        }
      ],
      "name": "ApprovalForAll",
      "type": "event"
    },
    {
      "anonymous": false,
      "inputs": [
        {
          "indexed": true,
          "internalType": "address",
          "name": "previousOwner",
          "type": "address"
        },
        {
          "indexed": true,
          "internalType": "address",
          "name": "newOwner",
          "type": "address"
        }
      ],
      "name": "OwnershipTransferred",
      "type": "event"
    },
    {
      "anonymous": false,
      "inputs": [
        {
          "indexed": true,
          "internalType": "address",
          "name": "operator",
          "type": "address"
        },
        {
          "indexed": true,
          "internalType": "address",
          "name": "from",
          "type": "address"
        },
        {
          "indexed": true,
          "internalType": "address",
          "name": "to",
          "type": "address"
        },
        {
          "indexed": false,
          "internalType": "uint256[]",
          "name": "ids",
          "type": "uint256[]"
        },
        {
          "indexed": false,
          "internalType": "uint256[]",
          "name": "values",
          "type": "uint256[]"
        }
      ],
      "name": "TransferBatch",
      "type": "event"
    },
    {
      "anonymous": false,
      "inputs": [
        {
          "indexed": true,
          "internalType": "address",
          "name": "operator",
          "type": "address"
        },
        {
          "indexed": true,
          "internalType": "address",
          "name": "from",
          "type": "address"
        },
        {
          "indexed": true,
          "internalType": "address",
          "name": "to",
          "type": "address"
        },
        {
          "indexed": false,
          "internalType": "uint256",
          "name": "id",
          "type": "uint256"
        },
        {
          "indexed": false,
          "internalType": "uint256",
          "name": "value",
          "type": "uint256"
        }
      ],
      "name": "TransferSingle",
      "type": "event"
    },
    {
      "anonymous": false,
      "inputs": [
        {
          "indexed": false,
          "internalType": "string",
          "name": "value",
          "type": "string"
        },
        {
          "indexed": true,
          "internalType": "uint256",
          "name": "id",
          "type": "uint256"
        }
      ],
      "name": "URI",
      "type": "event"
    },
    {
      "inputs": [
        {
          "internalType": "address",
          "name": "account",
          "type": "address"
        },
        {
          "internalType": "uint256",
          "name": "id",
          "type": "uint256"
        }
      ],
      "name": "balanceOf",
      "outputs": [
        {
          "internalType": "uint256",
          "name": "",
          "type": "uint256"
        }
      ],
      "stateMutability": "view",
      "type": "function"
    },
    {
      "inputs": [
        {
          "internalType": "address[]",
          "name": "accounts",
          "type": "address[]"
        },
        {
          "internalType": "uint256[]",
          "name": "ids",
          "type": "uint256[]"
        }
      ],
      "name": "balanceOfBatch",
      "outputs": [
        {
          "internalType": "uint256[]",
          "name": "",
          "type": "uint256[]"
        }
      ],
      "stateMutability": "view",
      "type": "function"
    },
    {
      "inputs": [],
      "name": "currentIndex",
      "outputs": [
        {
          "internalType": "uint256",
          "name": "",
          "type": "uint256"
        }
      ],
      "stateMutability": "view",
      "type": "function"
    },
    {
      "inputs": [
        {
          "internalType": "address",
          "name": "account",
          "type": "address"
        },
        {
          "internalType": "address",
          "name": "operator",
          "type": "address"
        }
      ],
      "name": "isApprovedForAll",
      "outputs": [
        {
          "internalType": "bool",
          "name": "",
          "type": "bool"
        }
      ],
      "stateMutability": "view",
      "type": "function"
    },
    {
      "inputs": [
        {
          "internalType": "uint256",
          "name": "amount",
          "type": "uint256"
        },
        {
          "internalType": "string",
          "name": "_uri",
          "type": "string"
        }
      ],
      "name": "mintToken",
      "outputs": [],
      "stateMutability": "nonpayable",
      "type": "function"
    },
    {
      "inputs": [],
      "name": "owner",
      "outputs": [
        {
          "internalType": "address",
          "name": "",
          "type": "address"
        }
      ],
      "stateMutability": "view",
      "type": "function"
    },
    {
      "inputs": [],
      "name": "renounceOwnership",
      "outputs": [],
      "stateMutability": "nonpayable",
      "type": "function"
    },
    {
      "inputs": [
        {
          "internalType": "address",
          "name": "from",
          "type": "address"
        },
        {
          "internalType": "address",
          "name": "to",
          "type": "address"
        },
        {
          "internalType": "uint256[]",
          "name": "ids",
          "type": "uint256[]"
        },
        {
          "internalType": "uint256[]",
          "name": "amounts",
          "type": "uint256[]"
        },
        {
          "internalType": "bytes",
          "name": "data",
          "type": "bytes"
        }
      ],
      "name": "safeBatchTransferFrom",
      "outputs": [],
      "stateMutability": "nonpayable",
      "type": "function"
    },
    {
      "inputs": [
        {
          "internalType": "address",
          "name": "from",
          "type": "address"
        },
        {
          "internalType": "address",
          "name": "to",
          "type": "address"
        },
        {
          "internalType": "uint256",
          "name": "id",
          "type": "uint256"
        },
        {
          "internalType": "uint256",
          "name": "amount",
          "type": "uint256"
        },
        {
          "internalType": "bytes",
          "name": "data",
          "type": "bytes"
        }
      ],
      "name": "safeTransferFrom",
      "outputs": [],
      "stateMutability": "nonpayable",
      "type": "function"
    },
    {
      "inputs": [
        {
          "internalType": "address",
          "name": "operator",
          "type": "address"
        },
        {
          "internalType": "bool",
          "name": "approved",
          "type": "bool"
        }
      ],
      "name": "setApprovalForAll",
      "outputs": [],
      "stateMutability": "nonpayable",
      "type": "function"
    },
    {
      "inputs": [
        {
          "internalType": "uint256",
          "name": "tokenId",
          "type": "uint256"
        },
        {
          "internalType": "string",
          "name": "_uri",
          "type": "string"
        }
      ],
      "name": "setTokenUri",
      "outputs": [],
      "stateMutability": "nonpayable",
      "type": "function"
    },
    {
      "inputs": [
        {
          "internalType": "bytes4",
          "name": "interfaceId",
          "type": "bytes4"
        }
      ],
      "name": "supportsInterface",
      "outputs": [
        {
          "internalType": "bool",
          "name": "",
          "type": "bool"
        }
      ],
      "stateMutability": "view",
      "type": "function"
    },
    {
      "inputs": [
        {
          "internalType": "address",
          "name": "newOwner",
          "type": "address"
        }
      ],
      "name": "transferOwnership",
      "outputs": [],
      "stateMutability": "nonpayable",
      "type": "function"
    },
    {
      "inputs": [
        {
          "internalType": "uint256",
          "name": "tokenId",
          "type": "uint256"
        }
      ],
      "name": "uri",
      "outputs": [
        {
          "internalType": "string",
          "name": "",
          "type": "string"
        }
      ],
      "stateMutability": "view",
      "type": "function"
    }
  ],
  "bytecode": "0x608060405260016005553480156200001657600080fd5b506040518060200160405280600081525062000038816200005f60201b60201c565b50620000596200004d6200007b60201b60201c565b6200008360201b60201c565b6200025e565b80600290805190602001906200007792919062000149565b5050565b600033905090565b6000600360009054906101000a900473ffffffffffffffffffffffffffffffffffffffff16905081600360006101000a81548173ffffffffffffffffffffffffffffffffffffffff021916908373ffffffffffffffffffffffffffffffffffffffff1602179055508173ffffffffffffffffffffffffffffffffffffffff168173ffffffffffffffffffffffffffffffffffffffff167f8be0079c531659141344cd1fd0a4f28419497f9722a3daafe3b4186f6b6457e060405160405180910390a35050565b8280546200015790620001f9565b90600052602060002090601f0160209004810192826200017b5760008555620001c7565b82601f106200019657805160ff1916838001178555620001c7565b82800160010185558215620001c7579182015b82811115620001c6578251825591602001919060010190620001a9565b5b509050620001d69190620001da565b5090565b5b80821115620001f5576000816000905550600101620001db565b5090565b600060028204905060018216806200021257607f821691505b602082108114156200022957620002286200022f565b5b50919050565b7f4e487b7100000000000000000000000000000000000000000000000000000000600052602260045260246000fd5b612501806200026e6000396000f3fe608060405234801561001057600080fd5b50600436106100e95760003560e01c8063715018a61161008c578063a22cb46511610066578063a22cb46514610248578063e985e9c514610264578063f242432a14610294578063f2fde38b146102b0576100e9565b8063715018a614610204578063752312a91461020e5780638da5cb5b1461022a576100e9565b806326987b60116100c857806326987b601461017e5780632eb2c2d61461019c5780634e1273f4146101b857806357f7789e146101e8576100e9565b8062fdd58e146100ee57806301ffc9a71461011e5780630e89341c1461014e575b600080fd5b610108600480360381019061010391906117e7565b6102cc565b6040516101159190611d6e565b60405180910390f35b6101386004803603810190610133919061188f565b610395565b6040516101459190611c31565b60405180910390f35b610168600480360381019061016391906118e1565b610477565b6040516101759190611c4c565b60405180910390f35b61018661051c565b6040516101939190611d6e565b60405180910390f35b6101b660048036038101906101b1919061165d565b610522565b005b6101d260048036038101906101cd9190611823565b6105a5565b6040516101df9190611c0f565b60405180910390f35b61020260048036038101906101fd919061190a565b610756565b005b61020c6107fe565b005b6102286004803603810190610223919061190a565b610886565b005b61023261096b565b60405161023f9190611b9a565b60405180910390f35b610262600480360381019061025d91906117ab565b610995565b005b61027e60048036038101906102799190611621565b6109ab565b60405161028b9190611c31565b60405180910390f35b6102ae60048036038101906102a9919061171c565b610a3f565b005b6102ca60048036038101906102c591906115f8565b610ac2565b005b60008073ffffffffffffffffffffffffffffffffffffffff168373ffffffffffffffffffffffffffffffffffffffff16141561033d576040517f08c379a000000000000000000000000000000000000000000000000000000000815260040161033490611cae565b60405180910390fd5b60008083815260200190815260200160002060008473ffffffffffffffffffffffffffffffffffffffff1673ffffffffffffffffffffffffffffffffffffffff16815260200190815260200160002054905092915050565b60007fd9b67a26000000000000000000000000000000000000000000000000000000007bffffffffffffffffffffffffffffffffffffffffffffffffffffffff1916827bffffffffffffffffffffffffffffffffffffffffffffffffffffffff1916148061046057507f0e89341c000000000000000000000000000000000000000000000000000000007bffffffffffffffffffffffffffffffffffffffffffffffffffffffff1916827bffffffffffffffffffffffffffffffffffffffffffffffffffffffff1916145b80610470575061046f82610bba565b5b9050919050565b60606006600083815260200190815260200160002080546104979061200e565b80601f01602080910402602001604051908101604052809291908181526020018280546104c39061200e565b80156105105780601f106104e557610100808354040283529160200191610510565b820191906000526020600020905b8154815290600101906020018083116104f357829003601f168201915b50505050509050919050565b60055481565b61052a610c24565b73ffffffffffffffffffffffffffffffffffffffff1661054861096b565b73ffffffffffffffffffffffffffffffffffffffff161461059e576040517f08c379a000000000000000000000000000000000000000000000000000000000815260040161059590611cee565b60405180910390fd5b5050505050565b606081518351146105eb576040517f08c379a00000000000000000000000000000000000000000000000000000000081526004016105e290611d2e565b60405180910390fd5b6000835167ffffffffffffffff81111561062e577f4e487b7100000000000000000000000000000000000000000000000000000000600052604160045260246000fd5b60405190808252806020026020018201604052801561065c5781602001602082028036833780820191505090505b50905060005b845181101561074b576106f58582815181106106a7577f4e487b7100000000000000000000000000000000000000000000000000000000600052603260045260246000fd5b60200260200101518583815181106106e8577f4e487b7100000000000000000000000000000000000000000000000000000000600052603260045260246000fd5b60200260200101516102cc565b82828151811061072e577f4e487b7100000000000000000000000000000000000000000000000000000000600052603260045260246000fd5b6020026020010181815250508061074490612071565b9050610662565b508091505092915050565b61075e610c24565b73ffffffffffffffffffffffffffffffffffffffff1661077c61096b565b73ffffffffffffffffffffffffffffffffffffffff16146107d2576040517f08c379a00000000000000000000000000000000000000000000000000000000081526004016107c990611cee565b60405180910390fd5b806006600084815260200190815260200160002090805190602001906107f99291906112f0565b505050565b610806610c24565b73ffffffffffffffffffffffffffffffffffffffff1661082461096b565b73ffffffffffffffffffffffffffffffffffffffff161461087a576040517f08c379a000000000000000000000000000000000000000000000000000000000815260040161087190611cee565b60405180910390fd5b6108846000610c2c565b565b61088e610c24565b73ffffffffffffffffffffffffffffffffffffffff166108ac61096b565b73ffffffffffffffffffffffffffffffffffffffff1614610902576040517f08c379a00000000000000000000000000000000000000000000000000000000081526004016108f990611cee565b60405180910390fd5b6000600554905061092433828560405180602001604052806000815250610cf2565b8160066000838152602001908152602001600020908051906020019061094b9291906112f0565b50808060010191505080600581905550610966336001610995565b505050565b6000600360009054906101000a900473ffffffffffffffffffffffffffffffffffffffff16905090565b6109a76109a0610c24565b8383610ea3565b5050565b6000600160008473ffffffffffffffffffffffffffffffffffffffff1673ffffffffffffffffffffffffffffffffffffffff16815260200190815260200160002060008373ffffffffffffffffffffffffffffffffffffffff1673ffffffffffffffffffffffffffffffffffffffff16815260200190815260200160002060009054906101000a900460ff16905092915050565b610a47610c24565b73ffffffffffffffffffffffffffffffffffffffff16610a6561096b565b73ffffffffffffffffffffffffffffffffffffffff1614610abb576040517f08c379a0000000000000000000000000000000000000000000000000000000008152600401610ab290611cee565b60405180910390fd5b5050505050565b610aca610c24565b73ffffffffffffffffffffffffffffffffffffffff16610ae861096b565b73ffffffffffffffffffffffffffffffffffffffff1614610b3e576040517f08c379a0000000000000000000000000000000000000000000000000000000008152600401610b3590611cee565b60405180910390fd5b600073ffffffffffffffffffffffffffffffffffffffff168173ffffffffffffffffffffffffffffffffffffffff161415610bae576040517f08c379a0000000000000000000000000000000000000000000000000000000008152600401610ba590611cce565b60405180910390fd5b610bb781610c2c565b50565b60007f01ffc9a7000000000000000000000000000000000000000000000000000000007bffffffffffffffffffffffffffffffffffffffffffffffffffffffff1916827bffffffffffffffffffffffffffffffffffffffffffffffffffffffff1916149050919050565b600033905090565b6000600360009054906101000a900473ffffffffffffffffffffffffffffffffffffffff16905081600360006101000a81548173ffffffffffffffffffffffffffffffffffffffff021916908373ffffffffffffffffffffffffffffffffffffffff1602179055508173ffffffffffffffffffffffffffffffffffffffff168173ffffffffffffffffffffffffffffffffffffffff167f8be0079c531659141344cd1fd0a4f28419497f9722a3daafe3b4186f6b6457e060405160405180910390a35050565b600073ffffffffffffffffffffffffffffffffffffffff168473ffffffffffffffffffffffffffffffffffffffff161415610d62576040517f08c379a0000000000000000000000000000000000000000000000000000000008152600401610d5990611d4e565b60405180910390fd5b6000610d6c610c24565b90506000610d7985611010565b90506000610d8685611010565b9050610d97836000898585896110d6565b8460008088815260200190815260200160002060008973ffffffffffffffffffffffffffffffffffffffff1673ffffffffffffffffffffffffffffffffffffffff1681526020019081526020016000206000828254610df69190611f02565b925050819055508673ffffffffffffffffffffffffffffffffffffffff16600073ffffffffffffffffffffffffffffffffffffffff168473ffffffffffffffffffffffffffffffffffffffff167fc3d58168c5ae7397731d063d5bbf3d657854427343f4c083240f7aacaa2d0f628989604051610e74929190611d89565b60405180910390a4610e8b836000898585896110de565b610e9a836000898989896110e6565b50505050505050565b8173ffffffffffffffffffffffffffffffffffffffff168373ffffffffffffffffffffffffffffffffffffffff161415610f12576040517f08c379a0000000000000000000000000000000000000000000000000000000008152600401610f0990611d0e565b60405180910390fd5b80600160008573ffffffffffffffffffffffffffffffffffffffff1673ffffffffffffffffffffffffffffffffffffffff16815260200190815260200160002060008473ffffffffffffffffffffffffffffffffffffffff1673ffffffffffffffffffffffffffffffffffffffff16815260200190815260200160002060006101000a81548160ff0219169083151502179055508173ffffffffffffffffffffffffffffffffffffffff168373ffffffffffffffffffffffffffffffffffffffff167f17307eab39ab6107e8899845ad3d59bd9653f200f220920489ca2b5937696c31836040516110039190611c31565b60405180910390a3505050565b60606000600167ffffffffffffffff811115611055577f4e487b7100000000000000000000000000000000000000000000000000000000600052604160045260246000fd5b6040519080825280602002602001820160405280156110835781602001602082028036833780820191505090505b50905082816000815181106110c1577f4e487b7100000000000000000000000000000000000000000000000000000000600052603260045260246000fd5b60200260200101818152505080915050919050565b505050505050565b505050505050565b6111058473ffffffffffffffffffffffffffffffffffffffff166112cd565b156112c5578373ffffffffffffffffffffffffffffffffffffffff1663f23a6e6187878686866040518663ffffffff1660e01b815260040161114b959493929190611bb5565b602060405180830381600087803b15801561116557600080fd5b505af192505050801561119657506040513d601f19601f8201168201806040525081019061119391906118b8565b60015b61123c576111a2612147565b806308c379a014156111ff57506111b76123d9565b806111c25750611201565b806040517f08c379a00000000000000000000000000000000000000000000000000000000081526004016111f69190611c4c565b60405180910390fd5b505b6040517f08c379a000000000000000000000000000000000000000000000000000000000815260040161123390611c6e565b60405180910390fd5b63f23a6e6160e01b7bffffffffffffffffffffffffffffffffffffffffffffffffffffffff1916817bffffffffffffffffffffffffffffffffffffffffffffffffffffffff1916146112c3576040517f08c379a00000000000000000000000000000000000000000000000000000000081526004016112ba90611c8e565b60405180910390fd5b505b505050505050565b6000808273ffffffffffffffffffffffffffffffffffffffff163b119050919050565b8280546112fc9061200e565b90600052602060002090601f01602090048101928261131e5760008555611365565b82601f1061133757805160ff1916838001178555611365565b82800160010185558215611365579182015b82811115611364578251825591602001919060010190611349565b5b5090506113729190611376565b5090565b5b8082111561138f576000816000905550600101611377565b5090565b60006113a66113a184611dd7565b611db2565b905080838252602082019050828560208602820111156113c557600080fd5b60005b858110156113f557816113db88826114e7565b8452602084019350602083019250506001810190506113c8565b5050509392505050565b600061141261140d84611e03565b611db2565b9050808382526020820190508285602086028201111561143157600080fd5b60005b85811015611461578161144788826115e3565b845260208401935060208301925050600181019050611434565b5050509392505050565b600061147e61147984611e2f565b611db2565b90508281526020810184848401111561149657600080fd5b6114a1848285611fcc565b509392505050565b60006114bc6114b784611e60565b611db2565b9050828152602081018484840111156114d457600080fd5b6114df848285611fcc565b509392505050565b6000813590506114f68161246f565b92915050565b600082601f83011261150d57600080fd5b813561151d848260208601611393565b91505092915050565b600082601f83011261153757600080fd5b81356115478482602086016113ff565b91505092915050565b60008135905061155f81612486565b92915050565b6000813590506115748161249d565b92915050565b6000815190506115898161249d565b92915050565b600082601f8301126115a057600080fd5b81356115b084826020860161146b565b91505092915050565b600082601f8301126115ca57600080fd5b81356115da8482602086016114a9565b91505092915050565b6000813590506115f2816124b4565b92915050565b60006020828403121561160a57600080fd5b6000611618848285016114e7565b91505092915050565b6000806040838503121561163457600080fd5b6000611642858286016114e7565b9250506020611653858286016114e7565b9150509250929050565b600080600080600060a0868803121561167557600080fd5b6000611683888289016114e7565b9550506020611694888289016114e7565b945050604086013567ffffffffffffffff8111156116b157600080fd5b6116bd88828901611526565b935050606086013567ffffffffffffffff8111156116da57600080fd5b6116e688828901611526565b925050608086013567ffffffffffffffff81111561170357600080fd5b61170f8882890161158f565b9150509295509295909350565b600080600080600060a0868803121561173457600080fd5b6000611742888289016114e7565b9550506020611753888289016114e7565b9450506040611764888289016115e3565b9350506060611775888289016115e3565b925050608086013567ffffffffffffffff81111561179257600080fd5b61179e8882890161158f565b9150509295509295909350565b600080604083850312156117be57600080fd5b60006117cc858286016114e7565b92505060206117dd85828601611550565b9150509250929050565b600080604083850312156117fa57600080fd5b6000611808858286016114e7565b9250506020611819858286016115e3565b9150509250929050565b6000806040838503121561183657600080fd5b600083013567ffffffffffffffff81111561185057600080fd5b61185c858286016114fc565b925050602083013567ffffffffffffffff81111561187957600080fd5b61188585828601611526565b9150509250929050565b6000602082840312156118a157600080fd5b60006118af84828501611565565b91505092915050565b6000602082840312156118ca57600080fd5b60006118d88482850161157a565b91505092915050565b6000602082840312156118f357600080fd5b6000611901848285016115e3565b91505092915050565b6000806040838503121561191d57600080fd5b600061192b858286016115e3565b925050602083013567ffffffffffffffff81111561194857600080fd5b611954858286016115b9565b9150509250929050565b600061196a8383611b7c565b60208301905092915050565b61197f81611f58565b82525050565b600061199082611ea1565b61199a8185611ecf565b93506119a583611e91565b8060005b838110156119d65781516119bd888261195e565b97506119c883611ec2565b9250506001810190506119a9565b5085935050505092915050565b6119ec81611f6a565b82525050565b60006119fd82611eac565b611a078185611ee0565b9350611a17818560208601611fdb565b611a2081612169565b840191505092915050565b6000611a3682611eb7565b611a408185611ef1565b9350611a50818560208601611fdb565b611a5981612169565b840191505092915050565b6000611a71603483611ef1565b9150611a7c82612187565b604082019050919050565b6000611a94602883611ef1565b9150611a9f826121d6565b604082019050919050565b6000611ab7602b83611ef1565b9150611ac282612225565b604082019050919050565b6000611ada602683611ef1565b9150611ae582612274565b604082019050919050565b6000611afd602083611ef1565b9150611b08826122c3565b602082019050919050565b6000611b20602983611ef1565b9150611b2b826122ec565b604082019050919050565b6000611b43602983611ef1565b9150611b4e8261233b565b604082019050919050565b6000611b66602183611ef1565b9150611b718261238a565b604082019050919050565b611b8581611fc2565b82525050565b611b9481611fc2565b82525050565b6000602082019050611baf6000830184611976565b92915050565b600060a082019050611bca6000830188611976565b611bd76020830187611976565b611be46040830186611b8b565b611bf16060830185611b8b565b8181036080830152611c0381846119f2565b90509695505050505050565b60006020820190508181036000830152611c298184611985565b905092915050565b6000602082019050611c4660008301846119e3565b92915050565b60006020820190508181036000830152611c668184611a2b565b905092915050565b60006020820190508181036000830152611c8781611a64565b9050919050565b60006020820190508181036000830152611ca781611a87565b9050919050565b60006020820190508181036000830152611cc781611aaa565b9050919050565b60006020820190508181036000830152611ce781611acd565b9050919050565b60006020820190508181036000830152611d0781611af0565b9050919050565b60006020820190508181036000830152611d2781611b13565b9050919050565b60006020820190508181036000830152611d4781611b36565b9050919050565b60006020820190508181036000830152611d6781611b59565b9050919050565b6000602082019050611d836000830184611b8b565b92915050565b6000604082019050611d9e6000830185611b8b565b611dab6020830184611b8b565b9392505050565b6000611dbc611dcd565b9050611dc88282612040565b919050565b6000604051905090565b600067ffffffffffffffff821115611df257611df1612118565b5b602082029050602081019050919050565b600067ffffffffffffffff821115611e1e57611e1d612118565b5b602082029050602081019050919050565b600067ffffffffffffffff821115611e4a57611e49612118565b5b611e5382612169565b9050602081019050919050565b600067ffffffffffffffff821115611e7b57611e7a612118565b5b611e8482612169565b9050602081019050919050565b6000819050602082019050919050565b600081519050919050565b600081519050919050565b600081519050919050565b6000602082019050919050565b600082825260208201905092915050565b600082825260208201905092915050565b600082825260208201905092915050565b6000611f0d82611fc2565b9150611f1883611fc2565b9250827fffffffffffffffffffffffffffffffffffffffffffffffffffffffffffffffff03821115611f4d57611f4c6120ba565b5b828201905092915050565b6000611f6382611fa2565b9050919050565b60008115159050919050565b60007fffffffff0000000000000000000000000000000000000000000000000000000082169050919050565b600073ffffffffffffffffffffffffffffffffffffffff82169050919050565b6000819050919050565b82818337600083830152505050565b60005b83811015611ff9578082015181840152602081019050611fde565b83811115612008576000848401525b50505050565b6000600282049050600182168061202657607f821691505b6020821081141561203a576120396120e9565b5b50919050565b61204982612169565b810181811067ffffffffffffffff8211171561206857612067612118565b5b80604052505050565b600061207c82611fc2565b91507fffffffffffffffffffffffffffffffffffffffffffffffffffffffffffffffff8214156120af576120ae6120ba565b5b600182019050919050565b7f4e487b7100000000000000000000000000000000000000000000000000000000600052601160045260246000fd5b7f4e487b7100000000000000000000000000000000000000000000000000000000600052602260045260246000fd5b7f4e487b7100000000000000000000000000000000000000000000000000000000600052604160045260246000fd5b600060033d11156121665760046000803e61216360005161217a565b90505b90565b6000601f19601f8301169050919050565b60008160e01c9050919050565b7f455243313135353a207472616e7366657220746f206e6f6e204552433131353560008201527f526563656976657220696d706c656d656e746572000000000000000000000000602082015250565b7f455243313135353a204552433131353552656365697665722072656a6563746560008201527f6420746f6b656e73000000000000000000000000000000000000000000000000602082015250565b7f455243313135353a2062616c616e636520717565727920666f7220746865207a60008201527f65726f2061646472657373000000000000000000000000000000000000000000602082015250565b7f4f776e61626c653a206e6577206f776e657220697320746865207a65726f206160008201527f6464726573730000000000000000000000000000000000000000000000000000602082015250565b7f4f776e61626c653a2063616c6c6572206973206e6f7420746865206f776e6572600082015250565b7f455243313135353a2073657474696e6720617070726f76616c2073746174757360008201527f20666f722073656c660000000000000000000000000000000000000000000000602082015250565b7f455243313135353a206163636f756e747320616e6420696473206c656e67746860008201527f206d69736d617463680000000000000000000000000000000000000000000000602082015250565b7f455243313135353a206d696e7420746f20746865207a65726f2061646472657360008201527f7300000000000000000000000000000000000000000000000000000000000000602082015250565b600060443d10156123e95761246c565b6123f1611dcd565b60043d036004823e80513d602482011167ffffffffffffffff8211171561241957505061246c565b808201805167ffffffffffffffff811115612437575050505061246c565b80602083010160043d03850181111561245457505050505061246c565b61246382602001850186612040565b82955050505050505b90565b61247881611f58565b811461248357600080fd5b50565b61248f81611f6a565b811461249a57600080fd5b50565b6124a681611f76565b81146124b157600080fd5b50565b6124bd81611fc2565b81146124c857600080fd5b5056fea2646970667358221220e6d0f8668fe4f1c39c6dbff453aa5d08f31a9014b1383ee06a858c10c410a7fa64736f6c63430008040033",
  "linkReferences": {},
  "deployedLinkReferences": {}
}